:100000000C949E020C94BB020C94BB020C94BB0299
:100010000C94BB020C94BB020C94BB020C94BB026C
:100020000C94BB020C94BB020C948E110C944A11DC
:100030000C9414210C94BB020C94BB020C94BB02D4
:100040000C94BB020C94BB020C94BB020C94BB023C
:100050000C94BB020C94680D0C94BB020C94BB0274
:100060000C94BB020C94BB020C94BB020C94BB021C
:100070000C94BB020C94BB020C94BB020C94BB020C
:100080000C94BB020C94BB020C94BB020C94BB02FC
:100090000C94BB020C94BB020C94BB020C94BB02EC
:1000A0000C94BB020C94BB020C94BB0235004C00B8
:1000B0002A00E100354100001E00140004001D610B
:1000C000085D4D001F001A0016001B00E1042A0005
:1000D0002000080007000600E2002C0021001500A7
:1000E00009001900E3004A00220017000A00050079
:1000F000000065644C002A00000058000000E30086
:100100002E000153000000070000E20023001C0045
:100110000B00110000002961240018000D001000E0
:100120002D004B0025000C000E0036002E0028008C
:10013000260012000F0037002F002B0027001300AD
:100140003342387130004E002D0031003468E50034
:100150000151000029000100010001000100000020
:100160003A001E02200222022E0001003B001F0264
:1001700021022302010001003C002F0226022F0071
:10018000010001003D0030022702300001000100A3
:100190003E0031023500350200000100010001007F
:1001A000000001000000010001000100000001004A
:1001B000000001003F005200510024020000010035
:1001C0004000240021001E00010001004100250024
:1001D00022001F00370001004200260023002000FB
:1001E00027000100430025022E0231002E000100ED
:1001F0004400450001000100010000000100010071
:1002000001000100010000000100010001000100E7
:100210000100010001000100F200010001000100E5
:100220000100F000F1000100F400010001000100F4
:10023000F3000100F50001000100010001000100D0
:1002400000000100010001000000010000000100A9
:100250000100010000000100000001000100010098
:100260000100010000000100010001000100010087
:10027000A9000100010001000100AC00AA00B600C5
:10028000010001000100AB00A80001000100010015
:100290000100010001000100005C0100AE0001004E
:1002A000010000000A00000000000306B200080080
:1002B00001000000A800080002000200A0001400D5
:1002C000030057494E555342000000000000000053
:1002D00000008400040007002A0044006500760046
:1002E00069006300650049006E00740065007200DB
:1002F0006600610063006500470055004900440046
:100300007300000050007B003900440042003700B9
:1003100046003100460044002D00370045003700FC
:1003200041002D0034003000300038002D0039002D
:100330003300360042002D003600420041003600F6
:1003400043003100390041003300300038006300C1
:100350007D00000000001B0301636F6E6669677516
:1003600072652E6572676F646F782D657A2E636F84
:100370006D0005010902A10185020901A10005091D
:1003800019012905150025019505750181029501C1
:10039000750381010501093009311581257F950219
:1003A0007508810609381581257F95017508810634
:1003B000050C0A38021581257F950175088106C054
:1003C000C005010980A10185031A81002A83001656
:1003D0000100260300950175108100C0050C09017C
:1003E000A10185041A01002A9C02160100269C0224
:1003F000950175108100C005010906A1018505055B
:100400000719E029E7150025019508750181020506
:1004100007190029EF1500250195F07501810205E6
:10042000081901290595057501910295017503913A
:1004300001C005010906A101050719E029E715001A
:10044000250195087501810295017508810105074F
:10045000190029FF150026FF009506750881000583
:1004600008190129059505750191029501750391FA
:1004700001C009025200030100A0FA0904000001B2
:10048000030101000921110100012240000705813B
:100490000308000A090401000103000000092111FA
:1004A00001000122C0000705820320000A0904029E
:1004B0000002FF0000000705830340000507050454
:1004C000034000051201100200000008EDFE0713B2
:1004D000010001020301040330000000160345007F
:1004E000720067006F0064006F0078002000450014
:1004F0005A00000008035A005300410000000403A2
:100500000904050F3900021C100500DF60DDD889E1
:1005100045C74C9CD2659D9E648A9F00000306B22D
:100520000045001810050038B60834A909A0478B0B
:10053000FDA0768815B665000142000011241FBE9B
:10054000CFEFDAE0DEBFCDBF11E0A0E0B1E0E4E83C
:10055000F7E402C005900D92A83FB107D9F723E058
:10056000A8EFB1E001C01D92A533B207E1F70E94E8
:100570000A1E0C9495230C940000E8EDF0E08081B5
:100580008E7F80831092E2001092DA001092E100D8
:10059000A0EEB0E08C9181608C9380818F77808316
:1005A00019BCA7EDB0E08C918E7F8C9380818F7EFB
:1005B00080831092020308952091E4003091E500B9
:1005C00095E6A9012091EC00822F817020FF06C0E2
:1005D0008091E80080FF06C080E008952091E80047
:1005E00022FD1AC080912703882389F0853089F085
:1005F0008091EB0085FD0FC02091E4003091E50073
:1006000042175307F9F29150E1F684E0089582E031
:10061000089583E0089581E00895EF92FF920F938B
:100620001F93CF937C018B010E94DC02C82F88238B
:1006300071F08C2FCF911F910F91FF90EF90089543
:10064000F70181917F018093F1000150110901159B
:10065000110579F38091E80085FDF2CF8091E800E3
:100660008E778093E8000E94DC02882381F3C82FF4
:10067000E0CF8091290387FF13C08091E80082FFBB
:1006800006C08091E8008B778093E80004C08091D9
:1006900027038111F2CF0895809127038823D9F38E
:1006A0008091E80080FFF8CF8091E8008E77ECCF52
:1006B000982F9093E900242F762F50E0891731F07E
:1006C0007091EC002091ED005091F00021FD07C0E9
:1006D0009F5F973071F78093E90081E00895309132
:1006E000EB003E7F3093EB003091ED003D7F309387
:1006F000ED003091EB0031603093EB007093EC0033
:100700002093ED005093F0002091EE0027FDE0CF04
:1007100080E00895CF92DF92EF92FF920F931F93A4
:10072000CF93DF93C8EDD0E088818F7E8883E7ED9B
:10073000F0E080818160808384E082BF81E08093EB
:10074000020388818E7F888302EE10E0F801108218
:100750001092DA0081EEC82ED12CF6011082888129
:100760008F77888388818068888388818F7D88835C
:1007700019BC10922703109228031092260310929E
:10078000250390EEE92EF12CF70180818B7F808389
:1007900088818160888342E060E080E00E945803A5
:1007A000F60180818E7F8083F80180818160808363
:1007B000808188608083F70180818E7F808388813B
:1007C00080618883DF91CF911F910F91FF90EF900F
:1007D000DF90CF900895FC0180912F03909130031A
:1007E00086179707A0F06115710529F48091E8003C
:1007F0008E778093E80090E06115710551F49111B6
:1008000008C08091E80082FF35C080E00895BC01F7
:10081000F2CF809127038823C9F18530C9F18091F7
:10082000E80083FD31C08091E80082FDEACF80912D
:10083000E80080FFE1CF8091F3002091F200382F93
:100840006115710519F02830310558F091E0283014
:10085000310509F090E08091E8008E778093E80000
:10086000CBCF84918093F1003196615071092F5F55
:100870003F4FE6CF80912703882341F0853041F038
:100880008091E80083FFBDCF81E0089582E0089564
:1008900083E00895FC0180912F0390913003861727
:1008A0009707A0F06115710529F49091E8009E77F3
:1008B0009093E80090E06115710551F4911108C022
:1008C0008091E80082FF34C080E00895BC01F2CF3F
:1008D000809127038823C1F18530C1F18091E80020
:1008E00083FD30C08091E80082FDEACF8091E8006E
:1008F00080FFE1CF8091F3002091F200382F611545
:10090000710519F02830310558F091E02830310593
:1009100009F090E02091E8002E772093E800CBCFFB
:1009200081918093F100615071092F5F3F4FE7CFB4
:1009300080912703882341F0853041F08091E800C1
:1009400083FFBECF81E0089582E0089583E008959B
:1009500080912703843011F482E0089581E00895A6
:1009600080910403089520912703243099F423E013
:100970002093E90070E050E040E00E940D038823DE
:1009800021F010920003109201038091E8008E770D
:100990008093E80008959091E402803F41F48091B3
:1009A000E50287FD1092E502992371F00895813FD9
:1009B00029F48091E5021816ACF3F6CF823F81F45A
:1009C00097FFF2CF1092E4028091E5029091E60247
:1009D000892B9091E702892B49F71092E80208953C
:1009E000833F19F4191674F3DFCF893F39F48091EE
:1009F000E6021816CCF61092E602D6CF8A3F29F40A
:100A00008091E60287FFD0CFF6CF8B3F39F48091FB
:100A1000E70287FFC9CF1092E702C6CF8C3F29F4C7
:100A20008091E7021816BCF3BFCF843F31F4809168
:100A3000E3028E7F8093E302B7CF853F21F480915C
:100A4000E3028D7FF7CF863F21F48091E3028B7F15
:100A5000F1CF873F21F48091E302877FEBCF883F7E
:100A600021F48091E3028F7EE5CF8D3F31F48091B8
:100A7000B6028E7F8093B60297CF8E3F21F480918D
:100A8000B6028D7FF7CF8F3F09F08ECF8091B602EF
:100A90008B7FF0CF8091B60280FD16C081FD16C01D
:100AA00082FD16C08091E8028823A1F0883280F48C
:100AB00028E0829FC001112468E270E00E940822B1
:100AC000862F672B39F0089582E0089584E0089519
:100AD00088E0089581E008958091B60280FD16C0F7
:100AE00081FD16C082FD18C08091E802882391F034
:100AF0008C3390F423E2829FC00111246CE370E0F8
:100B00000E940822862F672B49F0089588E00895F7
:100B100081E1089585E0089583E2089581E00895D4
:100B2000803F31F40E946C0581958093E502089521
:100B3000813F19F40E946C05F8CF823F31F40E9486
:100B40006C0581958093E4020895833F19F40E9417
:100B50006C05F8CF893F29F40E944A058093E6028C
:100B600008958A3F21F40E944A058195F7CF8B3F73
:100B700031F40E944A0581958093E70208958C3FE5
:100B800019F40E944A05F8CF843F31F48091E302C2
:100B900081608093E3020895853F21F48091E30210
:100BA0008260F7CF863F21F48091E3028460F1CF29
:100BB000873F21F48091E3028860EBCF883F21F4E6
:100BC0008091E3028061E5CF8D3F31F48091B602E0
:100BD00081608093B60208958E3F21F48091B60221
:100BE0008260F7CF8F3FB9F78091B6028460F1CF72
:100BF000CF92DF92EF92FF920F931F932FB7F8944B
:100C00004091B2025091B3026091B4027091B5026A
:100C10002FBF6A017B01EE24FF248C0130E020E02D
:100C2000C016D106E206F30650F0481B590BCA0164
:100C30001F910F91FF90EF90DF90CF90089541505A
:100C40005109F3CFCF92DF92EF92FF926C01EE2425
:100C5000FF2420E0C114D104E104F10419F0C7011C
:100C6000B60120E1C72ED82EE92EFF24C114D104ED
:100C7000E104F10419F0285FC701B6016B017C01A2
:100C800054E0F694E794D794C7945A95D1F7C114D9
:100C9000D104E104F10419F02C5FC701B6016B0126
:100CA0007C0142E0F694E794D794C7944A95D1F733
:100CB000C114D104E104F10419F02E5FC701B6019B
:100CC0009695879577956795672B682B692B09F023
:100CD0002F5F822FFF90EF90DF90CF90089580914B
:100CE000AD0281111092AD0208958091AC029091F5
:100CF000AB02892B9091AA02892B8093F8019091E5
:100D0000AD029923A1F0892B8093F8018091120103
:100D1000882341F18091CF0287FF24C08EE1EAEF62
:100D2000F1E090E0815000F591110E946F06E09192
:100D3000D102F091D2023097E1F080911201882324
:100D400059F08091CF0287FF07C08091F80180930E
:100D5000F90185E08093F8010280F381E02D88EFAE
:100D600091E0099486E0DBCF21912223D9F29F5FA5
:100D7000D9CF0895909112019923D1F09091CF028B
:100D800097FF16C0E82FE695E695E695EE31E0F47C
:100D9000F0E0E850FE4F282F277081E090E001C07E
:100DA000880F2A95EAF78095928189238283089596
:100DB000EAEFF1E09191891303C0DF0111971C92D2
:100DC00092E0E030F907B1F708959091120199236C
:100DD000C1F09091CF0297FF14C0E82FE695E695F9
:100DE000E695EE31F8F4F0E0E850FE4F877021E030
:100DF00030E001C0220F8A95EAF78281822B82833C
:100E00000895AAEFB1E0EFEF90E02D91821751F035
:100E1000EF3F19F4211101C0E92F9F5F9630A9F728
:100E2000EF3F09F408950E2E000CFF0BE850FE4F23
:100E3000E6CFE92FEE0FE90FEE0F8E0F982F977088
:100E400086958695869525E0829FF0011124EE58BF
:100E5000FD4F50E040E080E0219130E0092E02C0DB
:100E6000369527950A94E2F721703327042E01C0A6
:100E7000220F0A94EAF7822B4F5F5F4F45305105EE
:100E800059F70895E92FEE0FE90FEE0F8E0F982F07
:100E9000977041E001C0440F9A95EAF786958695D0
:100EA000869595E0899FF0011124EE58FD4F30E0C2
:100EB00020E070E05191DF011197CB01022E02C0BA
:100EC000969587950A94E2F781708195852784230A
:100ED00085278C932F5F3F4F2530310559F70895B3
:100EE0008091710290914002981301C008958F5F24
:100EF0008770FACF882341F080959091AB028923C7
:100F00008093AB020C9475060895882339F0909174
:100F1000AB02982B9093AB020C947506089588232E
:100F200041F080959091AC0289238093AC020C949F
:100F300075060895882339F09091AC02982B909310
:100F4000AC020C947506089520912302309124027E
:100F50002817390771F09093240280932302E091BF
:100F6000D102F091D202309721F00084F185E02D7A
:100F700009940895209121023091220228173907FF
:100F800071F09093220280932102E091D102F091BE
:100F9000D202309721F00680F781E02D0994089560
:100FA000E091D102F091D202309721F00190F081CE
:100FB000E02D099480E008959091CF0292FF06C041
:100FC000282F28712830F9F4877F846093FF06C0AA
:100FD000282F28712831F1F4877E84612091D00276
:100FE00020FF06C0382F38713830D9F4877F8160F0
:100FF00021FF06C0282F28712831D1F4877E816116
:1010000094FD877E0895282F24712430F9F68B7F74
:101010008860DCCF282F2471243101F78B7E886112
:10102000DDCF382F3171313019F78E7F8860E0CFF6
:10103000282F2171213121F78E7E8861E1CFCF9356
:10104000DF93972F70E026E0929F600D711D1124B1
:10105000FB0134E5839FE00DF11D1124EE0FFF1F0E
:10106000E455FF4FC591D491CE01C238D105B9F1F5
:10107000E8F5C133D10509F499C050F5C932D1055D
:1010800009F48DC0CA32D10509F497C0C11542E5F3
:10109000D40708F0C4C0C11521E5D20708F038C153
:1010A000C83ED10508F09DC0C03ED10568F5C83ADC
:1010B000D10508F089C0C53AD10508F005C1C13095
:1010C000D10511F1209709F443C02497E8F440C0FA
:1010D000C533D10509F45CC0C933D105B9F62091F7
:1010E000CF02237089F080EE90E00EC0C33ED105A0
:1010F00091F168F4C03ED105F9F0C23ED10531F658
:101100002091CF0222FD20C0DF91CF910895C63EED
:10111000D10561F1C73ED10581F1C43ED10509F089
:10112000B5CF2091D00221FFEFCF8091CF0284FD77
:101130000FC087EE90E0E8CF2091CF0220FD19C1CB
:101140003091D00230FFE0CF83EE90E024FFDCCF7F
:1011500090E080E0D9CF2091CF0222FD0DC13091E7
:10116000D00230FDC0CF24FFCFCFF2CF2091CF02ED
:1011700023FFCACF24FDECCFDCCF2091CF0223FD8B
:10118000FEC03091D00231FFEECF84EE90E0BCCFB4
:101190002091CF0225FFB8CF89E290E0B5CF209112
:1011A000CF0225FFB1CF85E390E0AECF2091CF02F3
:1011B00026FFAACF8AE290E0A7CF2091CF0226FF98
:1011C000A3CF81E390E0A0CFCF3BD10508F6C85A6A
:1011D000D0E0CC0FDD1FC653DE4F88819981946427
:1011E00093CFC11530E2D30760F4C11541E0D407B5
:1011F00008F08ACFCE019065C03FD10508F084CFBA
:10120000A7CFC11580E4D80708F4A2CFC11590E597
:10121000D90708F061C0CE019F70906A75CFC115E3
:1012200026E5D20718F5C11535E5D30708F086C0C5
:10123000C11544E5D40708F07CC09C2F969596957F
:10124000AE0143705527C115D34508F466C021E0AF
:1012500030E002C0220F331F4A95E2F740E2949F2C
:10126000C0011124822B932B9A684ECFC1159AE5A9
:10127000D90778F4C11529E5D20708F069C0C1156E
:1012800038E5D30708F464CF9C2F8827806F906AD5
:101290003BCFC1154BE5D40708F45ACFC1158CE5F7
:1012A000D80708F462C0CE0190568115904208F02C
:1012B0004FCF8D2F8F710E94DC0790E0982F8827E9
:1012C00088279F718C2B42C0C55AD0E0C953DE4F8E
:1012D000888190E0906418CF9E01E4E036952795D0
:1012E000EA95E1F723708C2F86958695837030E21E
:1012F000839FC0011124922BC37021E030E002C013
:10130000220F331FCA95E2F7822B932B9C68FCCEE9
:101310009C2F8827816F906AF7CE21E030E002C0D1
:10132000220F331F4A95E2F740E2949FC001112437
:10133000EBCF9C2F8827846F906AE6CE8C2F0E947B
:10134000DC0790E0982F882788279F719062DCCE79
:101350008C2F8F700E94DC0734E0D695C7953A95A4
:10136000E1F7CF709C2F9069CFCECE019927906680
:10137000CBCE89E390E0C8CE82EE90E0C5CE86EE7B
:1013800090E0C2CEBF92CF92DF92EF92FF920F9386
:101390001F93CF93DF938C01C090FB02D090FC028F
:1013A000E090FD02F090FE028091AE029091AF02BB
:1013B000A091B002B091B102C82AD92AEA2AFB2A28
:1013C000CFE1D0E0BC2ED701C6010C2E04C0B695EB
:1013D000A795979587950A94D2F780FD0EC021971F
:1013E00088F7B12C8B2DDF91CF911F910F91FF903A
:1013F000EF90DF90CF90BF900895B8018C2F0E949E
:101400001F08019761F3EECFCF93DF93EC010E94A9
:10141000C209BE01DF91CF910C941F080E94040AFB
:10142000292F2F7092959F7092509E3078F4E92F5B
:10143000F0E0E956FC4D0C941C22803F19F020F49A
:10144000883E20F481E00895843FE1F380E0089530
:10145000883EC0F3813FD1F7F5CF822F86958695E0
:101460008695089527982F98089526982E98089580
:1014700025982D98089556985E980895279A2F9A42
:101480000895269A2E9A0895259A2D9A0895CF9216
:10149000DF92EF92FF92CF936B017C010E942206B4
:1014A000C82F0E943B0A0E94380A0E94350A0E94F7
:1014B000320AC150C73040F4EC2FF0E0EB55FC4D40
:1014C0000C941C220E94440AC701B601CF91FF90E0
:1014D000EF90DF90CF9008950E94440A0E94410A45
:1014E000F3CF0E94440A0E943E0AEECF0E94440AB3
:1014F0000E94410AF8CF84B1807F84B985B1807F92
:1015000085B98AB1837F8AB98BB1837F8BB93E98C5
:101510004698089580B38C7080BB81B3836F81BB84
:101520000895CF9384E090E00E942222C82F81E2A8
:1015300090E00E942222982F8C2FCF910895CF9374
:10154000DF9300D00F92CDB7DEB790912703943090
:1015500019F589837B836A8382E08093E9008FEFAA
:101560009091E800815095FD06C095ED9A95F1F7B0
:1015700000008111F5CF8091E80085FF0DC050E09B
:1015800040E063E070E0CE0101960E940D0380917F
:10159000E8008E778093E8000F900F900F90DF9116
:1015A000CF910895CF93DF93EC010E94A80482307D
:1015B00011F0843031F4BE0184E0DF91CF910C94BE
:1015C0009F0ADF91CF910895BC016058710983E0B3
:1015D0000C949F0ACF93DF93EC010E94A804823001
:1015E00011F08430F9F482E08093E9008FEF90915C
:1015F000E800815095FD06C095ED9A95F1F7000041
:101600008111F5CF8091E80085FF0CC050E040E0EB
:1016100066E070E0CE010E940D038091E8008E77B5
:101620008093E800DF91CF910895CF93DF93EC0191
:101630000E94A804823011F08430B9F58091120123
:101640008823B1F18091CF0287FF32C060E282E04F
:101650008093E9008FEF9091E800815095FD06C0DE
:1016600095ED9A95F1F700008111F5CF8091E80092
:1016700085FF1BC08091120170E050E040E08111B5
:1016800004C050E040E068E070E0CE010E940D032D
:101690008091E8008E778093E80080E2FE01A5E06B
:1016A000B3E001900D928A95E1F7DF91CF91089513
:1016B00068E081E0CDCFEF92FF920F931F93CF931D
:1016C000DF930E943B0A0E94380A0E94350A0E945A
:1016D000320A88E8E82EF12C8FEF90E0F701918331
:1016E00080830AE810E0F80191838083CCE8D0E0A1
:1016F000998388830E94440AFFEF20E782E0F1503B
:1017000020408040E1F700C000000E94410A9FEFA6
:10171000E0E7F2E09150E040F040E1F700C0000067
:101720000E943E0A2FEF80E792E0215080409040D7
:10173000E1F700C000000E94380AEFEFF0E722E076
:10174000E150F0402040E1F700C000000E94350A5F
:101750008FEF90E7E2E081509040E040E1F700C079
:1017600000000E94320A8091BD028770FFEF8F9FB8
:10177000C001112495958795959587959927F7012F
:1017800091838083F80191838083998388830E9469
:101790003B0A0E94380A0E94350ADF91CF911F91BF
:1017A0000F91FF90EF900C94320A6091B9028CE097
:1017B00090E00C9436226FEE7EEF90E080E00E9485
:1017C000542260E082E090E00E94362260E083E0F4
:1017D00090E00E9436221092AE021092AF02109258
:1017E000B0021092B10260E084E090E00E943622E4
:1017F00060E081E290E00E94362260E085E090E0C7
:101800000E94362260E086E090E00E9436226FEF70
:1018100087E090E00E94362240E050E0BA0188E084
:1018200090E00E94482260E08DE090E00E94362225
:1018300040E050E0BA0188E190E00E94482260E078
:1018400087E190E00E94362240E050E0BA018CE14E
:1018500090E00E94482260E080E290E00E94362200
:101860001092BD021092BE021092BF021092C002EE
:1018700084E080618093BD024091BD025091BE0220
:101880006091BF027091C0028FE090E00E944822F8
:1018900040E050E0BA0183E190E00C944822CF93FD
:1018A000C82F873070F58091060190910701892B30
:1018B00089F564E670E080E40E944121909307017D
:1018C00080930601892BD1F464E670E082E10E94E6
:1018D0009D219093070180930601892B79F481E083
:1018E00090E001C0880FCA95EAF764E670E0809541
:1018F0000E949D219093070180930601CF910C9443
:10190000F0218A30B9F040F4883071F0893079F0F4
:10191000209A2898CF9108958C3091F070F08D30F6
:10192000B9F73E9A4698F6CF219A2998F3CF229A92
:101930002A98F0CF239A2B98EDCF529A5A98EACF53
:10194000539A5B98E7CF80E290E0909307018093F1
:10195000060180911E0281110EC00E943B2181E090
:1019600080931E022FEF83ED90E321508040904042
:10197000E1F700C0000064E670E080E40E944121CD
:101980009093070180930601892B09F04EC064E60D
:1019900070E080E00E949D219093070180930601F2
:1019A000892B09F042C064E670E080E00E949D212E
:1019B0009093070180930601892BB9F564E670E0E6
:1019C0008FE30E949D219093070180930601892B4C
:1019D00061F50E94F02164E670E080E40E944121FC
:1019E0009093070180930601892BF9F464E670E077
:1019F0008CE00E949D219093070180930601892B22
:101A0000A1F464E670E080E00E949D2190930701BC
:101A100080930601892B49F464E670E08FE30E940D
:101A20009D2190930701809306010E94F0218091EF
:101A300006010895CF93873008F040C080910601D9
:101A400090910701C0E0892B71F464E670E080E4B6
:101A50000E9441219093070180930601892B31F068
:101A6000C0E00E94F0218C2FCF91089564E670E0D1
:101A700083E10E949D219093070180930601892BA9
:101A800079F764E670E081E40E94412190930701B8
:101A900080930601892B21F784E690E00E94CC21F7
:101AA00097FF05C09093070180930601D9CFC82FF7
:101AB000C0951092070110920601D3CFCFB18FB11C
:101AC000869586958C73C3708C2BC82FC095CBCF11
:101AD00078941F921FB61F9211248F939F93AF93F8
:101AE000BF938091B2029091B302A091B402B091E1
:101AF000B5020196A11DB11D8093B2029093B3026D
:101B0000A093B402B093B502BF91AF919F918F9112
:101B10001F901FBE1F9018952FB7F8948091B202A6
:101B20009091B302A091B402B091B5022FBF089575
:101B3000E091D102F091D202309749F082E0809397
:101B4000E2020480F581E02D82EE92E009950E9488
:101B50008C0D9093EA028093E90208951092AB02F3
:101B60001092AA020E94750686E0E2EEF2E0DF0122
:101B70001D928A95E9F71092E8021092B6020E942F
:101B8000980D90E080E00E94BA0790E080E00C940D
:101B9000A407CF92DF92EF92FF92CF93DF9300D012
:101BA00000D0CDB7DEB70E94470A6B017C0180915F
:101BB000FF02882321F080910003811115C0C0929B
:101BC000FB02D092FC02E092FD02F092FE020E9423
:101BD000AE0D0F900F900F900F90DF91CF91FF906F
:101BE000EF90DF90CF900895198282E08A83C70139
:101BF000B6010E9422068B838EEF8C8364E0CE01B7
:101C000001960E94B304DBCF0F931F9341E050E095
:101C100060E070E004C0440F551F661F771F8A956F
:101C2000D2F7CB01BA01609570958095909500919F
:101C3000FB021091FC022091FD023091FE02602314
:101C40007123822393231F910F910C94C90D9091BE
:101C5000A902809589238093A902282F277071F407
:101C6000282F082E000C330B9217130639F0859598
:101C7000859585950E94040E1092A90208950F93F0
:101C80001F9341E050E060E070E004C0440F551F36
:101C9000661F771F8A95D2F78091FB029091FC0214
:101CA000A091FD02B091FE028A019B01082B192B25
:101CB0002A2B3B2BC901B8011F910F910C94C90D20
:101CC0006093AE027093AF028093B0029093B10222
:101CD0000C94AE0D1092AC0280911201EAEFF1E08B
:101CE000882359F08091CF0287FF07C08EE1DF0182
:101CF0001D928A95E9F70C94AE0D86E0F8CF1F93FC
:101D0000CF93DF93CDB7DEB7AA970FB6F894DEBFB7
:101D10000FBECDBF89E293E02091F100FC01219339
:101D2000CF01F3E081339F07B9F780912A0389300F
:101D300009F444C018F5823009F4B7C0833009F4BF
:101D40006CC0813031F580912903813A11F5809181
:101D5000E800877F8093E80080912D0390912E0307
:101D6000892B41F560E285E093E070E00E944A042F
:101D70008091E8008B778093E8000BC08B3009F4EA
:101D800069C008F481C0823409F4A0C0853409F424
:101D9000BAC08091E80083FF65C2809129039091C9
:101DA0002A039A3008F05EC2E92FF0E0E455FC4DBA
:101DB0000C941C2260E090E080E0D7CF8091290352
:101DC000813239F780912D0390912E03029708F705
:101DD0008091E800877F8093E8008091E80082FF8F
:101DE00017C09091F3008091F200029729F480913E
:101DF000F1008B7F813021F48091F1008093040306
:101E00008091E8008B778093E8000E943903C1CF6E
:101E1000809127038111E1CFBCCF80912903813AC2
:101E200009F0B7CF80912D0390912E03892B09F0F3
:101E3000B0CF8091E800877F8093E8008091E80030
:101E400080FFFCCF809112018093F1008091E80027
:101E50008E77D9CF80912903813209F09ACF809172
:101E60002D0390912E03892B09F093CF8091E800E8
:101E7000877F8093E8000E94390380912B03809331
:101E800012010E946A0E85CF80912903813209F0E8
:101E900080CF8091E800877F8093E8000E9439031B
:101EA00080912C038093030374CF80912903813A9E
:101EB00009F06FCF8091E800877F8093E8008091E0
:101EC000E80080FFFCCF80910303BECF80912903FF
:101ED000803C09F05ECF80912D0390912E030297F4
:101EE00039F580912B0390912C03892B09F5809172
:101EF000E800877F8093E8006BE170E086E593E07F
:101F00000E94EB0382CF80912903803C09F041CFEE
:101F100080912D0390912E03079751F48091E80052
:101F2000877F8093E80062EB70E084EA92E0E8CF7C
:101F30008091EB0080628093EB002BCF803899F08A
:101F4000823809F08FC180912D038F70873008F09F
:101F500089C18093E9008091EB0085FB882780F997
:101F60001092E90006C080912503909126039111FB
:101F700082609091E800977F9093E8008093F10051
:101F80001092F1008091E8008E7768C1882309F4EF
:101F900056C1823009F066C180912B03811159C16D
:101FA00080912D038F702FEF280F263008F05AC133
:101FB0008093E9002091EB0020FF4BC1933031F476
:101FC0008091EB0080628093EB0043C19091EB0025
:101FD00090619093EB0021E030E001C0220F8A95E0
:101FE000EAF72093EA001092EA008091EB00886003
:101FF000EACF811137C110912B031F778091E30045
:102000008078812B8093E3008091E800877F809324
:10201000E8000E9439038091E80080FFFCCF8091A6
:10202000E30080688093E30082E0111183E08093F5
:10203000270318C18058823008F014C180912B0307
:1020400090912C038C3D23E09207A1F583E08A83D5
:102050008AE289834FB7F894DE01139620E03EE0D0
:1020600051E2E32FF0E050935700E49120FF03C0CA
:10207000E295EF703F5FEF708E2F90E0EA30C0F096
:10208000C7968D939D932F5F243159F74FBF809151
:10209000E800877F8093E8006AE270E0CE01019655
:1020A0000E944A048091E8008B778093E800DAC0B0
:1020B000C096E7CF40912D0350912E03292F33274F
:1020C0002330310569F1A0F42130310509F46CC0E9
:1020D00062E570E082E794E02230310509F0C2C089
:1020E0002091E800277F2093E8000E94EB03DACFDD
:1020F0002132310509F440C02232310509F448C0CB
:102100002F30310509F0AEC0E4E0F5E0E4916E2F28
:1021100070E082E095E06115710509F4A3C0E0CF9D
:10212000992781309105C1F0009771F082309105B7
:10213000D9F0039709F096C0E6EDF4E0E4916E2F34
:1021400070E086ED94E0E7CFEEEFF4E0E4916E2FDF
:1021500070E08EEF94E0DFCFE4EFF4E0E4916E2FD7
:1021600070E084EF94E0D7CFECEDF4E0E4916E2FD3
:1021700070E08CED94E0CFCF41155105D1F04130A6
:10218000510509F06FC069E070E08DE994E0A8CFD7
:102190004115510599F04130510509F063C060ECDB
:1021A00070E082E793E09CCF62E170E084EC94E021
:1021B00097CF69E070E084E894E092CF60E470E04B
:1021C00082E394E08DCF803809F04CC08091E80024
:1021D000877F8093E800809128038093F100D2CE1E
:1021E000811140C010912B031230E0F58091E8007E
:1021F000877F8093E800109328030E9439031123FE
:1022000011F084E005C08091E30087FDFACF81E002
:102210008093270342E061EC81E00E94580342E290
:1022200061EC82E00E94580342E361EC83E00E948B
:10223000580342E360EC84E00E94580313C080918D
:102240002B03813079F481E0933009F080E08093B2
:1022500026031092E9008091E800877F8093E800D0
:102260000E9439038091E80083FF0AC08091E80052
:10227000877F8093E8008091EB0080628093EB0081
:10228000AA960FB6F894DEBF0FBECDBFDF91CF91F7
:102290001F9108951F920F920FB60F9211242F9342
:1022A0003F934F935F936F937F938F939F93AF93DE
:1022B000BF93CF93DF93EF93FF93D091E900DF704B
:1022C0008091EC00C82FC17080FDC0E81092E90039
:1022D0008091F000877F8093F00078940E947F0EB9
:1022E0001092E9008091F00088608093F000CD2B7F
:1022F000CF70C093E900FF91EF91DF91CF91BF9133
:10230000AF919F918F917F916F915F914F913F918D
:102310002F910F900FBE0F901F9018951F920F9244
:102320000FB60F9211242F933F934F935F936F93A8
:102330007F938F939F93AF93BF93EF93FF9380917E
:10234000E10082FF09C08091E20082FF05C0809118
:10235000E1008B7F8093E1008091DA0080FF24C050
:102360008091D80080FF20C08091DA008E7F80931A
:10237000DA008091D90080FF9FC080E189BD82E1B1
:1023800089BD09B400FEFDCF81E0809327038091D1
:102390000203811109C00E94BD020E948A0380913C
:1023A000E20084608093E2008091E10080FF17C02A
:1023B0008091E20080FF13C08091E2008E7F8093C5
:1023C000E2008091E20080618093E2008091D80079
:1023D00080628093D80019BC85E0809327038091A8
:1023E000E10084FF2DC08091E20084FF29C080E1DC
:1023F00089BD82E189BD89B5982F917080FFFBCF9F
:102400008091D8008F7D8093D8008091E1008F7EED
:102410008093E1008091E2008F7E8093E2008091C2
:10242000E20081608093E20080912803882309F410
:1024300049C084E0809327030E946A0E0E94D0075F
:102440008091E10083FF27C08091E20083FF23C0D9
:102450008091E100877F8093E10082E080932703F1
:10246000109228038091E1008E7F8093E10080919B
:10247000E2008E7F8093E2008091E2008061809391
:10248000E20042E060E080E00E9458038091F000AA
:1024900088608093F000FF91EF91BF91AF919F9181
:1024A0008F917F916F915F914F913F912F910F90FD
:1024B0000FBE0F901F90189519BC10922703109211
:1024C000020372CF8091E30087FD93E0909327038E
:1024D000B3CF882309F459C0823871F40E94D00721
:1024E00081FF53C089E30E94E5060E94750689E3D7
:1024F0000E94BA060C947506833859F40E94D007DE
:1025000080FF43C083E50E94E5060E94750683E5CF
:10251000EFCF843859F40E94D00782FF36C087E499
:102520000E94E5060E94750687E4E2CF9CEF980FB3
:10253000913AF0F290E2980F983088F4877021E099
:1025400030E0A90102C0440F551F8A95E2F7CA0185
:1025500080959091AC0289238093AC02CBCF9BE510
:10256000980F933020F490E080E00C94BA0798E53F
:10257000980F973120F490E080E00C94A407803FFE
:1025800020F00E94CB040C94980D0895882309F440
:102590007BC08238B9F40E94D00781FD75C089E301
:1025A0000E94E5060E9475062FEF81EE94E021500F
:1025B00080409040E1F700C0000089E30E94BA0625
:1025C0000C9475068338A1F40E94D00780FD5CC08E
:1025D00083E50E94E5060E9475062FEF81EE94E0E8
:1025E000215080409040E1F700C0000083E5E6CF35
:1025F0008438A1F40E94D00782FD46C087E40E947F
:10260000E5060E9475062FEF81EE94E02150804090
:102610009040E1F700C0000087E4D0CF9CEF980F16
:10262000913A18F40E94E506CBCF90E2980F9830CB
:1026300068F4877021E030E001C0220F8A95EAF744
:102640008091AC02822B8093AC02BACFEBE5E80F0D
:10265000E33038F4F0E0E953FE4F808190E00C94D1
:10266000BA07E8E5E80FE73148F4F0E0EE0FFF1FA6
:10267000E653FE4F808191810C94A407803F20F0A7
:102680000E9490050C94980D0895CF93C82F0E9436
:10269000C612C93349F42FEF87EE93E021508040F2
:1026A0009040E1F700C000008C2FCF910C9469128C
:1026B0000F931F93CF93DF93C62FD42F022FFC01CC
:1026C00082818823A1F0609334020E948C0D909344
:1026D000200280931F02C77081E001C0880FCA9555
:1026E000EAF7DF91CF911F910F910C949A07109107
:1026F0003402161335C080911F02909120020E946F
:10270000F805883C910560F5C0E2CD0F1D17B9F0C2
:1027100080E2810F883040F4177081E001C0880F9B
:102720001A95EAF70E948F07C83048F481E09D2F80
:10273000977001C0880F9A95EAF70E949A07802F38
:102740000E944513C83098F4D77081E001C0880F0B
:10275000DA95EAF7DF91CF911F910F910C948F07D3
:10276000C77081E001C0880FCA95EAF7F3CFDF9107
:10277000CF911F910F9108954F925F926F927F9228
:102780008F929F92AF92BF92CF92DF92EF92FF9281
:102790000F931F93CF93DF9300D000D00F92CDB74C
:1027A000DEB76C01FC0183819481892B39F01081A3
:1027B000F180812F8F218F3F09F0C5C50F900F90B9
:1027C0000F900F900F90DF91CF911F910F91FF907D
:1027D000EF90DF90CF90BF90AF909F908F907F90C1
:1027E0006F905F904F9008950E94C209082F682F44
:1027F00089819A810E944207E12FF0E026E0F29E53
:10280000E00DF11D112434E5039FE00DF11D1124AD
:10281000EE0FFF1FE455FF4F059114918091FF02C9
:10282000882321F080910003811179C50930FDE5ED
:102830001F07F1F5F6018281882309F44EC08091CB
:10284000BD0291E0980F9770887F953008F4892B2E
:102850008093BD028091BD028770FFEF8F9FC00102
:10286000112495958795959587959927909389003B
:102870008093880090938B0080938A0090938D00C2
:1028800080938C004091BD025091BE026091BF02C6
:102890007091C0028FE090E00E9448226091FB029C
:1028A0007091FC028091FD029091FE020E94470A05
:1028B000F6018281882389F0033EFCE51F0709F4B5
:1028C000C1C008F0ABC0013E3CE5130709F4B3C03A
:1028D000023E8CE5180709F4B3C017FFE0C0F6010B
:1028E0008281882309F44DC08091AC028093330229
:1028F0001092AC028091B902813009F4ABC08823F8
:1029000009F4A4C0823009F4B2C0843009F4B6C01E
:102910008FE39CE90197F1F700C000005801E894AB
:10292000B7F84CE0E42EF12C95010E2C02C0369540
:1029300027950A94E2F72F7087E290E031F0822F1A
:1029400090E02A3008F09FC04D960E94451394E015
:10295000E91AF108ECEFEE16EFEFFE0629F7809189
:10296000B902813009F495C0882309F48EC0823001
:1029700009F48BC0843009F490C0809133028093B5
:10298000AC02F6018281882309F4EEC4109234026D
:102990000230FCE51F0708F496C106312CE512074A
:1029A00038F098012A5F3C452730310508F08BC18B
:1029B0000E94910A9093D0028093CF020F303CE5A1
:1029C000130709F461C108F0DBC008309CE5190762
:1029D00009F444C108F0B0C00430FCE51F0709F455
:1029E00031C108F096C002303CE5130709F422C15A
:1029F00003301C4509F422C16091CF021091D0022E
:102A000084E090E00E943622612F81E290E00E94F3
:102A100036220E946A0ED2CE81E187C4043E9CE534
:102A2000190791F084E0053EECE51E0709F055CF4B
:102A30008093B90202C01092B9020E94D50B4DCF0B
:102A400081E0F6CF82E0F4CF83E0F2CF82EE0E9405
:102A5000C6125ECF83E00E94850788E10E94C612FD
:102A600088E10E94691283E00E947A0751CF82EECA
:102A70000E94C61287E50E9445134ACF86EE0E9447
:102A8000451388E1F8CF069760CF82EE0E94691265
:102A900074CF8CE20E94451370CF88E2FBCF033FD6
:102AA000FCE51F0739F1A0F4083D3CE51307F1F000
:102AB000093D8CE5180751F1073D9CE5190709F020
:102AC00060CF26E241EE61EEC6010E94581376CE39
:102AD000053FECE51E07B1F088F0063F2CE5120734
:102AE00009F04FCF27E245EE66EEEECF27E245EE46
:102AF00065EEEACF26E241EE60EEE6CF27E245EE54
:102B000064EEE2CF26E241EE62EEDECF28E241E063
:102B1000EFCF8091CF02806106309CE5190709F460
:102B200047C08091CF02886007301C4508F440C040
:102B30008091CF0280623CC00B30FCE51F0709F496
:102B40009BC068F409303CE5130709F48BC00A30D8
:102B50001C4509F051CF8091CF028C6029C0809133
:102B6000CF028B7F0D309CE5190711F18091CF02C8
:102B70008D7F0E301C45E0F08091CF02877F18C01A
:102B80000A3FFCE51F0709F461C060F502313CE52E
:102B9000130709F481C078F400319CE5190709F4A2
:102BA00077C08091CF028F7B01311C4509F024CF83
:102BB0008093CF0221CF0431FCE51F0709F47AC0CE
:102BC00008F470C005311C4509F016CF8091CF0282
:102BD00082FB992790F921E0922790FB82F990FBE4
:102BE00083F9E6CF0D3F8CE5180709F449C070F46E
:102BF0000B3FECE51E0771F18091D0028E7F0C3FF8
:102C00001C4509F0F9CE8093D002F6CE0F3F2CE59B
:102C1000120709F44BC060F101151D4509F0ECCE17
:102C20008091D002982F909591708E7F892B90FB88
:102C300081F9E9CF8091CF028160BACF8091CF0234
:102C40008260B6CF8091CF028460B2CF8091D002F3
:102C50008160D9CF8091D0028260D5CF8091CF02A0
:102C60008064A6CF0E946A0E8091CF028068A0CFB8
:102C70008091D0028360C7CF8091CF028E7F98CFA2
:102C80008091D0028D7FBFCF8091CF028F7E90CF79
:102C90008091CF028F7D8CCF0E946A0E8091CF02EF
:102CA0008F7786CF8091CF02837F82CF8091D002B1
:102CB0008C7FA9CF0E946A0E9091CF02892F97FB3B
:102CC00087F9805875CF06319CE5190709F058C37C
:102CD0008091AC028A7A91E009F490E090933502F9
:102CE000811106C089E20E94E5060E94750666CD44
:102CF00085E3F9CF85E341C30E94DB0B5FCD809173
:102D0000010391E089278093010358CDF6010081EA
:102D100011818823C9F1C8010E94C209F82E682FC9
:102D2000C8010E944207B8018F2D0E941F088C0124
:102D3000B82EF601E580E2943FE0E322F280F11044
:102D40001092AB028091A902877079F0FF2069F0A0
:102D500080E2800F883048F082E00E94270E809148
:102D6000A9028770AA24A3948111A12C912E929478
:102D70002FE09222FBE0F91508F440C0E92DF0E0C5
:102D8000EA54FC4D0C941C22C8010E941907F82E2D
:102D9000CACF212F2F70E22E107F19F0E29490EF0E
:102DA000E922FF20C9F0EE2069F080E2800F883030
:102DB00010F0B1100BC08091AC02E82AE092AC0296
:102DC0000E947506802F0E94C61218C08091AB0227
:102DD000E82AE092AB02F4CF802F0E946912EE2025
:102DE00069F0E094005E083010F0B11028C08091C6
:102DF000AC02E822E092AC020E947506292D285010
:102E0000330B2430310510F40E94D007AA2009F4B6
:102E1000D5CC8091A90280FDD1CCF6011282859596
:102E2000859585950E943F0EC6010E94BC13809136
:102E3000A9028595859585950E94040EBFCC809149
:102E4000AB02E822E092AB02D7CF312F3F70832E46
:102E5000107F103219F0829480EF8822802FBB20DF
:102E600041F091E0B91631F1FF2079F1EE2041F106
:102E7000A9CFFF2091F09091AD02892F8829E11010
:102E800003C00E949A07BACFE1E0EE12FACF98177A
:102E900009F4B4CF8093AD02B1CFE11006C00E9417
:102EA0006F06882D0E948F07A9CFF1E0EF1609F475
:102EB000A5CFF5CFFF2031F021E02E1508F49ECFED
:102EC000882DDFCFE1109ACFECCFEE2051F389337C
:102ED00049F43FEF87EE93E0315080409040E1F7B6
:102EE00000C00000802F0E94691288CF812F869534
:102EF0008695837061F0813009F080CFC8019370AE
:102F0000F11002C090E080E00E94A40777CFC801D2
:102F10009370F11002C090E080E00E94BA076ECF7B
:102F2000FF2009F1053F99F0063FB9F0043F49F44D
:102F3000809136029091370281609093370280939E
:102F40003602802F0E9490050E94980D57CF8091E5
:102F50003602909137028260F0CF809136029091D4
:102F600037028460EACF053F89F0063FA9F0043FAD
:102F700049F480913602909137028E7F9093370208
:102F800080933602802F0E94CB04DECF80913602E0
:102F9000909137028D7FF2CF809136029091370267
:102FA0008B7FECCF812F837009F066C0F11026CFA4
:102FB000802F829586958770880F880F602F6F709D
:102FC000462E512C712C612C082E04C0440C551C2B
:102FD000661C771C0A94D2F740E050E0BA0104FF67
:102FE0000FC04FE050E060E070E004C0440F551F98
:102FF000661F771F8A95D2F740955095609570951A
:10300000812F869586958370823019F1D8F40091CE
:10301000AE021091AF022091B0023091B102813026
:1030200069F04429552966297729CB01BA01602323
:103030007123822393230E94600EE0CE402A512AFE
:10304000622A732ACB01BA01642975298629972936
:10305000F2CF44295529662977290091AE021091B3
:10306000AF022091B0023091B102CB01BA016027CA
:10307000712782279327DFCF8695FF2011F0812FBC
:103080008170882309F4BACE802F82958695877047
:10309000880F880F602F6F70462E512C712C612C79
:1030A000082E04C0440C551C661C771C0A94D2F7E9
:1030B00040E050E0BA0104FF0FC04FE050E060E094
:1030C00070E004C0440F551F661F771F8A95D2F722
:1030D0004095509560957095812F86958695837063
:1030E000823019F1D8F40091FB021091FC0220917A
:1030F000FD023091FE02813069F04429552966298C
:103100007729CB01BA0160237123822393230E9484
:10311000C90D74CE402A512A622A732ACB01BA0102
:103120006429752986299729F2CF442955296629CA
:1031300077290091FB021091FC022091FD02309151
:10314000FE02CB01BA016027712782279327DFCFC8
:103150001F70FF2029F0812F0E943F0E802F91CEFB
:10316000802F0E948F07812F0E94040E47CE802F50
:10317000E2EFBE1609F44EC0EB1578F0F0EFBF1683
:1031800019F121EFB21609F43DC0FF2009F465C022
:10319000E11018CE812F8F713AC033EFB31609F4C6
:1031A0003EC094EFB912F1CFFF2009F44BC01F715C
:1031B000812F0E943F0EF8E01F9FC0011124836001
:1031C0008093A902812F23C0FF20B9F0E11016CE11
:1031D0001F7161E070E080E090E004C0660F771F2F
:1031E000881F991F1A95D2F70091FB021091FC02DB
:1031F0002091FD023091FE02A6CFE1E0EE1508F429
:10320000FDCDE6CF812F8F71FF2009F4ADCF0E9455
:103210003F0EF4CD812F8F71FF20C9F3A5CF60E061
:1032200070E0CB01FF2009F472CF1F7161E070E004
:1032300080E090E004C0660F771F881F991F1A95E1
:10324000D2F765CF81E00E94270E21E02E1508F00D
:10325000D5CD82E00E94270ED1CDE11038CE812F4E
:103260008F7182CFE2EFBE16D1F1EB1500F1F0EFD6
:10327000BF1649F121EFB216D1F180913802EE204C
:1032800009F441C0882341F08091390291E08927F7
:103290008093390210923802802FF11094CD0E9451
:1032A000691286E0F60111928A95E9F7A7CD34EF0D
:1032B000B316C1F0B31688F085EFB812DECFF11067
:1032C0009DCD81E007C0FF2009F498CD809139029F
:1032D00091E089278093390291CD81E0F826F09220
:1032E00039028CCDF1108ACD1092390287CDFF20A2
:1032F00039F080913802882349F3109238027ECD4C
:10330000EE2021F37BCD882309F478CDF11076CD22
:103310008091390291E0892780933902EECFF6013E
:1033200082811982811178CB82E18A83F6018081C2
:103330008B8381818C838EEF8D8365E0CE01019636
:103340000E94B30473CA85E0DE01119601900D92CC
:103350008A95E1F7F601228189819A81211144CA77
:103360000E941907082F48CA06311C4509F0CECC27
:10337000809135028111BECC89E20E94BA06B5CC9B
:103380000E3D2CE5120709F4B7CC08303DE51307D4
:1033900009F4B5CC01151C4509F0B8CC0E946A0EA1
:1033A000EFEFF4E32CE0E150F0402040E1F700C003
:1033B0000000F89481E08093E00080E28093D800E0
:1033C0001092C9008FE19EE40197F1F700C0000060
:1033D0001DBA109268001CBC10BE1FBA10927A0071
:1033E00010926E0010926F00109271001092720095
:1033F0001092C9001092BC0014B817B81AB81DB8C2
:1034000010BA1092BC0015B818B81BB81EB811BA83
:103410000C94003FD3C91F93CF93DF9380913F0259
:10342000807FC1F480913C028823A1F080917102D9
:10343000C091400260913A0270913B0240913D027E
:1034400050913E02D62FD723DA01A095B09516E011
:10345000C81304C0DF91CF911F91089590E04115EA
:10346000510511F0DF3F31F401968770F1CF2A0F3B
:103470003B1F17C0189FF001199FF00D1124EF5B3F
:10348000FD4F21812713F0CF20812613EDCF22811C
:103490002111EACF238134812417350740F3241BFF
:1034A000350B283C310500F720913F022F70206139
:1034B00020933F0226E0289FF001299FF00D112460
:1034C000EA5BFD4F80818F70806180838AE392E0A8
:1034D0000E94BC13DF91CF911F910C947007BF9293
:1034E000CF92DF92EF92FF920F931F93CF93DF93D0
:1034F000CDB7DEB761970FB6F894DEBF0FBECDBF74
:103500008C0185E0F801DE011D9601900D928A95EF
:10351000E1F7D8012C9111963C9111971296EC90FD
:10352000129780913D0290913E02009709F463C189
:1035300040913A0250913B02642F65236F3F09F49A
:103540005AC11396CD90DC90B0903C02BB2009F498
:1035500013C1C816D906C0F1F601E81BF90BCF015B
:10356000FF24F394883C910508F0F12C80913F02F0
:10357000982F907FFF2009F4C1C091117DC0FE2CCF
:10358000531327C0421325C0E11023C08F70806100
:1035900080933F028AE392E00E94BC1380913F0235
:1035A000D80115968C938F2D61960FB6F894DEBFD7
:1035B0000FBECDBFDF91CF911F910F91FF90EF9084
:1035C000DF90CF90BF900895809590958C0D9D1DB4
:1035D000C7CFCD2829F0822F83238F3F09F035C133
:1035E00080E0B82FB170DB2E80FF3CC0809171026B
:1035F0004091400256E0841315C02D873E878D858B
:103600009E850E94040A292F22952F702230F0F007
:10361000243018F59F70F1F0F8019581907FD1F476
:10362000D12C1EC090E0589FF001599FF00D11243D
:10363000EF5BFD4F6181361306C06081261303C026
:103640006281E6120FC001968770D5CF9F7011F08E
:10365000882331F3805E883018F3C8010E94BC13C0
:10366000FD2CA1CFEE2009F49ECF80913F02816016
:1036700080933F02F12C97CF531313C0421311C014
:10368000E1100FC0D80115968C93C8010E94BC139D
:1036900086E0F801AAE3B2E001900D928A95E1F785
:1036A00082CF2D873E878D859E850E940E0A8823B6
:1036B00009F1EE20F9F080913F02803270F0209104
:1036C0003A0230913B0238872F831986DB86CA86FF
:1036D0008C87CE0107960E94BC1386E0F801AAE30E
:1036E000B2E001900D928A95E1F70E940B1AFF2437
:1036F000F39459CFC8010E94BC13F9CF91110CC0AB
:103700008AE392E00E94BC1386E0EAE3F2E0DF0184
:103710001D928A95E9F747CF531312C0421310C088
:10372000E1100EC0F8018583C8010E94BC13EAE3D2
:10373000F2E086E0DF011D928A95E9F7FB2C33CF9A
:103740002D873E878D859E850E940E0A882391F2E3
:10375000EE2081F280913F02803208F4BECF2091AA
:103760003A0230913B023A8329831B82DD82CC826C
:103770008E83CE010196AFCFC816D90640F0C81A85
:10378000D90AB8ECCB16D10448F0F12CBDCF809506
:1037900090958C0D9D1D883C9105B8F7FE2CEE2070
:1037A00009F4A8CF531316C0421314C080913F02EE
:1037B00080FD6ECF982F907F09F46ACFF801858342
:1037C000903F09F462CF982F907F905F8F70892B84
:1037D00085835BCF2D873E878D859E850E940E0A4F
:1037E00081117BCF80913F02816080933F02C801AD
:1037F0000E94BC13D8CEEE2009F47CCF2D873E87E3
:103800008D859E850E940E0AF82E882309F472CFBA
:1038100086E0F801AAE3B2E001900D928A95E1F703
:1038200080913A0290913B020E94040A92959F7007
:10383000963041F48091390291E0892780933902D2
:10384000909338020E940B1AAECE81E08E25C9CE2D
:103850001F93CF93DF93CDB7DEB767970FB6F8947A
:10386000DEBF0FBECDBF6D8B7E8B8F8B8E899F8908
:10387000892BE1F0852F84238F3F09F098C05FEFFB
:103880004FEF14C030913902332309F44EC0E42FB6
:10389000F0E036E0539FE00DF11D1124EE0FFF1F05
:1038A000E15EFE4F40815181822B8C931A8A198AE6
:1038B0004B8B5C8B85E0FE017396DE011D960190BB
:1038C0000D928A95E1F786E0FE013D96DE0117969E
:1038D00001900D928A95E1F7CE0107960E946F1A2A
:1038E000811112C086E0FE013796DE01119601902B
:1038F0000D928A95E1F78A859B85892B29F08F8126
:10390000988589238F3FC9F516E0809171029091C7
:103910004002891320C067960FB6F894DEBF0FBE31
:10392000CDBFDF91CF911F91089580958223BDCFA8
:1039300096E0929FD001939FB00D1124AF5BBD4FD5
:10394000FE01319601900D929A95E1F78093400225
:103950000E947007D9CF819FC00111248F5B9D4FBA
:103960000E946F1A8823B9F28091710290E001964B
:103970008770992780937102C8CF2091400230E070
:10398000C90101968770992740917102481719065D
:1039900079F60E946A0E109240021092710286E03F
:1039A000EAE3F2E0DF011D928A95E9F7ADCF81E00D
:1039B00090E0042E01C0880F0A94EAF7A52FB0E02A
:1039C000AB5DBD4F2C913D8931115CCF322F382337
:1039D0005BCF8F929F92AF92BF92CF92DF92EF9286
:1039E000FF920F931F93CF93DF93809106019091E5
:1039F0000701892B91F080911D028F5F80931D023A
:103A000081110BC00E94A30C90E09093070180935A
:103A10000601892B11F40E945B0B01EC12E0780186
:103A2000C0E0912C37E0C32ECC0E8C2F0E944F0C9F
:103A30008C2D0E944F0C8C2F0E941A0DD7019D9146
:103A40007D01D12C891729F0FD0131978083DD2478
:103A5000D3948C2D0E941A0DF7019681891709F4D1
:103A600065C0868381E08D29982A0E947B0ACF5FFA
:103A7000C730C1F60E948C0D6AEF70E00E94F421FD
:103A8000882ED0911902DD2309F4A2C010921902E8
:103A9000E091B702F091B8027F012EE0E20EF11C36
:103AA00040E0CBEF2AEFC22ED12C51915B3F81F049
:103AB000652F70E0282D392F8517D0F1261B370B85
:103AC0002E313105DCF19F0121503109D901CC9310
:103AD000EE15FF0551F740931902911002C04111F4
:103AE00079C010921802A091B702B091B80220914B
:103AF0001902E4EDF2E090E04191E80139918E0184
:103B0000431751F04C914B3FD9F48C93AF01415086
:103B10005109EA01388321E01196D2E0E23EFD0727
:103B200059F7209319029093180258C080E09BCF58
:103B3000D601A61BB70B2A0F3B1FC2CF4D2FC8CFF4
:103B400091E0EACF9170892B09F459C080911B0252
:103B500090911C028130984780F01092010360918F
:103B6000FB027091FC028091FD029091FE020E9486
:103B7000470A10921C0210921B0280911B02909126
:103B80001C02019690931C0280931B02892DDF91E9
:103B9000CF911F910F91FF90EF90DF90CF90BF904A
:103BA000AF909F908F9008950E94410A2EC0892B5C
:103BB00069F310921C0210921B026091FB0270913B
:103BC000FC028091FD029091FE020E94470ADECF26
:103BD000911087CF90911802911183CF80911B0291
:103BE00090911C0220910103222309F3009709F010
:103BF000A9CF0E94380A0E94350A0E94320AC09159
:103C00001A02CC2389F20E94350A81E0C827C093AA
:103C10001A029CCFCDB7DEB7C955D1090FB6F894BB
:103C2000DEBF0FBECDBF84B7877F84BF0FB6F894C9
:103C3000A895809160008861809360001092600078
:103C40000FBE80E890E00FB6F894809361009093E7
:103C500061000FBE85B7806885BF85B7806885BF66
:103C60000E94BD020E948A038091E20084608093DA
:103C7000E2007894809127038823A1F01091E90055
:103C80001F709091EC00892F817090FD80E8182BB7
:103C90001092E9008091E80083FD0E947F0E1F7062
:103CA0001093E90082E084BD93E095BD9AEF97BD43
:103CB00080936E000E94A30C90E090930701809384
:103CC00006010E947B0A0E948A0AA1ECB2E082EE01
:103CD00092E0E4EDF2E011921D928E179F07D9F762
:103CE0008EE090E00E946A228093B7029093B8021F
:103CF000FC010E962BEF2193E817F907E1F790E00E
:103D000080E00E9430228F3E9E4F11F00E94DB0B1C
:103D10008CE090E00E94222290E0B0E0A0E080934E
:103D2000B9029093BA02A093BB02B093BC0289EA95
:103D30008093800089E08093810024982C983F989C
:103D40008AB18F7C8AB96E98479A8BB180638BB9A0
:103D5000769A8FE090E00E942A226093BD027093D1
:103D6000BE028093BF029093C00267704FEF649FC2
:103D7000B0011124759567957595679577277093B0
:103D800089006093880070938B0060938A00709321
:103D90008D0060938C000E945B0B90E080E00E949D
:103DA00030228F3E9E4F11F00E94DB0B82E090E0AC
:103DB0000E9422228093EC020E94910A9093D002EA
:103DC0008093CF0283E090E00E942222682F70E06F
:103DD00090E080E00E94600E88E091E09093D20233
:103DE0008093D102EE24EA948EEFF82E93E0492ED0
:103DF00021E4C22ED12CCC0EDD1EF2E0CF0ED11C60
:103E000030E1732E42E1642E58E1A52EB12C60E41E
:103E1000562E80912703853009F4A1C00E94E91C29
:103E2000ADEEB2E0E4EDF2E010E000E0302F819181
:103E30002D91281709F4E0C090E099249394282745
:103E4000422F492109F4D3C061969FAF61976296D2
:103E50003FAF6297892191E009F490E063969FAFAC
:103E600063970E948C0D8160782F65969FAF8EAF0F
:103E7000659761964FAD619762965FAD6297639665
:103E80006FAD639765968FAD65970E94281CF8010A
:103E9000E351FD4F8081982690828091E9029091B4
:103EA000EA020E94F8059C019091E802992319F01A
:103EB0002431310578F02091E4029090E5021091D0
:103EC000E6020091E7022111BDC0812F8929802BD4
:103ED00009F0A6C10E94D0079091EB02891721F04A
:103EE0000E94D0078093EB0280912703843009F071
:103EF00090CF8093E9008091E80082FF8ACF809183
:103F0000E80090E085FF06C00E94DC02882309F4E7
:103F1000FDC091E08091E8008B778093E8009923C1
:103F200009F477CF198111110DC180910103882304
:103F300009F422C11092010381E0809300032296CC
:103F40001FAE229723961FAE23972496FFAE249789
:103F500063E0CE018F5B9F4F0E94B3045ACF8091E4
:103F60002703843009F11092D3020FB6F894A89574
:103F7000A09260000FBE5092600083B7817F846082
:103F800083BF83B7816083BF7894889583B78E7F22
:103F900083BF0FB6F894A8958091600088618093E4
:103FA0006000109260000FBE80912603882309F400
:103FB00030CF0E94A30C90E09093070180930601FC
:103FC0000E947B0A0E948A0AE4EDF2E0119222E04C
:103FD000E23EF207D9F70E94E91CE4EDF2E081919C
:103FE00081110AC142E0E23EF407C9F712CF9F5F98
:103FF000990C963009F024CF0F5F1F4F0E3011053A
:1040000009F014CF6696EFAE66976796EFAE6797A6
:1040100068961FAE68970E948C0D8160782F6A9613
:104020009FAF8EAF6A9766964FAD669767965FAD06
:10403000679768966FAD68976A968FAD6A970E948A
:10404000281C2BCF9F3F19F09F5F9093E802121618
:1040500024F40E946C058093E4028091E40287FFBF
:1040600005C00E946C0581958093E402191424F424
:104070000E946C058093E5028091E50287FF05C0F0
:104080000E946C0581958093E5023091E402332310
:10409000A1F02091E502222381F045EB3403C00119
:1040A0001124992359F19093E40245EB24039001E4
:1040B0001124332339F13093E502111624F40E94C0
:1040C0004A058093E6028091E60287FF05C00E94C0
:1040D0004A0581958093E602101624F40E944A0551
:1040E0008093E7028091E70287FF05C00E944A059E
:1040F00081958093E7020E94980DECCE81E0809339
:10410000E402D3CF81E08093E502D7CF00E410E052
:10411000CE0101964C018091E80085FD0AC0809196
:10412000E8008B778093E8000E94DC02882399F3F3
:10413000F0CE8091F100F40181934F0101501109FB
:1041400051F7E7CE1130C1F422961FAE2297239685
:104150001FAF23978CE0E3E1F1E0D60101900D92CF
:104160008A95E1F76096FFAE60976FE0CE018F5BB6
:104170009F4F0E94B3044DCE809100038823C1F16C
:10418000123041F01330F1F081E022968FAF229788
:1041900061E0DFCE6091FB027091FC028091FD0234
:1041A0009091FE020E94220622961FAE229723962D
:1041B0001FAF239724968FAF24972596FFAE2597A0
:1041C00064E0C7CE8A81813041F0882341F082309B
:1041D000D9F681E08093FF0202C01092FF0222967E
:1041E0001FAE229723964FAE23978091FF02E2CF16
:1041F0002296EFAE2297CCCF79BC69BC09B400FE01
:10420000FDCF8091D8008F7D8093D8008091E00011
:1042100082608093E0008091E00081FDFCCFF9CDC9
:104220009F3F09F011CF22CF1F921FB61F9211247A
:104230008F939F93AF93BF938091D302811113C04B
:104240008091B2029091B302A091B402B091B502F4
:104250004196A11DB11D8093B2029093B302A09329
:10426000B402B093B502BF91AF919F918F911F900F
:104270001FBE1F9018951092B9008CE08093B80073
:104280000895EF92FF920F931F93CF93DF93182F10
:10429000EB011092BC0084EA8093BC000E948C0D5C
:1042A0007C018091BC0087FF27C08091B900887F86
:1042B000883029F08091B900887F8031D9F510933A
:1042C000BB0084E88093BC000E948C0D8C0180911F
:1042D000BC0087FF24C02091B900287F90E080E0D7
:1042E0002831B1F081E090E0203411F490E080E0DA
:1042F0009195819591090CC0CF3FDC0791F20E9406
:104300008C0D8E199F098C179D0758F28EEF9FEF29
:10431000DF91CF911F910F91FF90EF900895CF3FC4
:10432000DC07A9F20E948C0D801B910B8C179D0756
:1043300070F2ECCF8FEF9FEFEBCF0F931F93CF93E4
:10434000DF93EB018093BB0084E88093BC000E9464
:104350008C0D8C018091BC0087FF11C02091B900A9
:10436000287F81E090E0283211F490E080E0919580
:1043700081959109DF91CF911F910F910895CF3FC2
:10438000DC0741F30E948C0D801B910B8C179D075D
:1043900008F38EEF9FEFEECF0F931F93CF93DF9332
:1043A000EC0184E88093BC000E948C0D8C0180910C
:1043B000BC0087FF08C08091BB0090E0DF91CF91E7
:1043C0001F910F910895CF3FDC0789F30E948C0D58
:1043D000801B910B8C179D0750F38EEF9FEFEECF54
:1043E00084E98093BC000895AA1BBB1B51E107C060
:1043F000AA1FBB1FA617B70710F0A61BB70B881F75
:10440000991F5A95A9F780959095BC01CD01089503
:1044100097FB072E16F4009407D077FD09D00E9471
:10442000F42107FC05D03EF4909581959F4F0895A7
:10443000709561957F4F0895EE0FFF1F0590F491E1
:10444000E02D0994F999FECF92BD81BDF89A992784
:1044500080B50895A6E1B0E044E050E00C945C2201
:10446000A8E1B0E042E050E00C945C22262FF999DC
:10447000FECF92BD81BDF89A019700B4021639F0C3
:104480001FBA20BD0FB6F894FA9AF99A0FBE089594
:104490000396272F0E9437220E943622252F0E9442
:1044A0003722242F0C9437220196272F0E9437227F
:1044B0000C943622DC01CB01FC01F999FECF06C039
:1044C000F2BDE1BDF89A319600B40D9241505040D2
:1044D000B8F708950F931F93CF93DF938230910520
:1044E00010F482E090E0E0913303F091340330E087
:1044F00020E0B0E0A0E0309799F42115310509F4EF
:1045000047C0281B390B24303105C0F58A819B81B7
:104510006115710571F1FB0193838283FE0111C066
:10452000408151810281138148175907F8F04817DB
:10453000590799F4109761F012960C9312971396FD
:104540001C933296CF01DF91CF911F910F91089567
:104550000093330310933403F4CF2115310519F080
:104560004217530718F49A01BD01EF01DF01F8016A
:10457000C2CF9093340380933303D0CFFE01E20F78
:10458000F31F819391932250310939832883DACF25
:104590002091310330913203232B41F42091020109
:1045A00030910301309332032093310320910001B5
:1045B000309101012115310541F42DB73EB74091ED
:1045C000040150910501241B350B4091310350919A
:1045D00032034217530708F0B5CF241B350B2817B9
:1045E000390708F4AFCFBC016E5F7F4F261737073E
:1045F00008F4A8CF640F751F7093320360933103E2
:10460000FA01819391939ECFCF93DF930097E9F0C6
:10461000FC01329713821282C0913303D09134038C
:10462000DE0130E020E02097A1F420813181820F6B
:10463000931F20913103309132032817390709F075
:1046400067C0F0933203E0933103DF91CF91089577
:10465000DA01AE17BF0708F040C012964D915C9189
:1046600013979D014115510599F7D9011396FC93B4
:10467000EE9312974D915D91A40FB51FEA17FB07BA
:1046800079F4808191810296840F951FD90111964A
:104690009C938E938281938113969C938E93129711
:1046A000B0E0A0E08A819B810097B9F5FE0181917D
:1046B0009191E80FF91F80913103909132038E1789
:1046C0009F0719F6109761F5109234031092330387
:1046D000D0933203C0933103B8CFB383A283408118
:1046E0005181840F951FA817B90771F44E5F5F4F72
:1046F0008D919C911197480F591F518340831296B9
:104700008D919C91938382832115310509F0ADCF62
:10471000F0933403E093330398CFDE01EC01C2CF72
:1047200013961C921E921297D3CFF894FFCF1D0AB6
:104730001D0A260A260A280A260A260A260A1D0A09
:104740001D0A2D0A260A260A2D0A620A6E0A730A13
:104750006C0A710A780A760A9E0FC60F3211C60FCC
:104760003211F90F1A103211E310F010C916C916E0
:1047700025172517761790173219FE16D217A81885
:04478000B718B71897
:104784000000350320002000B004150BEA0AE40AF7
:10479400D20A01526C5947362F4B7656576C00009B
:1047A4000D010D020D030D040D050D000C010C028D
:1047B4000C030C040C050C000B010B020B030B0483
:1047C4000B050B000A010A020A030A040A050A007F
:1047D400090109020903090409050900080108027D
:1047E4000803080408050800070107020703070473
:1047F400070507000601060206030604060506006F
:10480400050105020503050405050500040104026C
:104814000403040404050400030103020303030462
:10482400030503000201020202030204020502005E
:10483400010101020103010401050100000100025C
:1048440000030004000500818283E200E900EA001D
:10485400B500B600B700CD008301CC008A019201F7
:1048640094012102230224022502260227022A029D
:08487400B300B4006F007000F6
:00000001FF
